:020000040000FA
:060000000A128A11EC2F28
:100742004934923400340034493492340034003451
:1007520049349234003400347E088A007F088200D3
:100762000A128A11AD230A128A118000840A04082F
:100772007D0603190034FF0A0319FE0AB12B78081B
:1007820079040319C52BC62BF52BFD01FD0AD42BC9
:1007920001300310F80DF90DFF3E031DCA2B013085
:1007A200FC007C08FD07F91FD72BD82BC92B790831
:1007B2007B02031DDE2B78087A02031CE12BE22B5D
:1007C200E82B7808FA027908031CFB03FB020130CC
:1007D2000310F90CF80CFF3E031DE92B0130FD025A
:1007E200031DF42BF52BD82B7B08F9007A08F800AF
:1007F2000800F501F601700871040319012C022C9E
:10080200392CF701F70A102C01300310F00DF10D0D
:10081200FF3E031D062C0130F4007408F707F11F98
:10082200132C142C052C01300310F50DF60DFF3E90
:10083200031D152C71087302031D212C700872020E
:10084200031C242C252C2C2C7008F2027108031C8A
:10085200F303F302751401300310F10CF00CFF3EA8
:10086200031D2D2C0130F702031D382C392C142CBA
:100872007608F1007508F0000800F601F31F422C1B
:10088200432C4A2CF209F309F20A0319F30AF6017E
:10089200F60AF11F4D2C4E2C532CF009F109F00AE7
:1008A2000319F10A700871040319582C592C882C69
:1008B200F501F50A672C01300310F00DF10DFF3E32
:1008C200031D5D2C0130F4007408F507F11F6A2C3A
:1008D2006B2C5C2C71087302031D712C7008720260
:1008E200031C742C752C7B2C7008F2027108031CFB
:1008F200F303F30201300310F10CF00CFF3E031D71
:100902007C2C0130F502031D872C882C6B2C760879
:1009120003198C2C8D2C922CF209F309F20A03197B
:10092200F30A7308F1007208F0000800831203133F
:10093200B201B301B001B101033083160313850084
:100942008601870183160317880102308316031379
:1009520081000B1DAD2CAE2CBA2C8312031301089F
:10096200833E81000B110130B0070318B10A003039
:10097200B10706308312031330063104031DC22C63
:10098200C32CCC2C0A128A1136270A128A1183121E
:100992000313B001B101051CCF2CD02CEE2CE73093
:1009A20032060330031933060319D82CD92CE22C52
:1009B2003208013EB20033080318013E003EB30084
:1009C200E42CB201B3013308A1003208A0000A12DC
:1009D2008A118E250A128A11AA2C851CF12CF22C5E
:1009E200AA2C320833040319F72CF82C012D3208F3
:1009F200FF3EB20033080318013EFF3EB300E42C71
:100A0200E730B2000330B300E42C0A128A11002846
:100A1200FA01F71F0D2D0E2D1B2DF409F509F6090C
:100A2200F709F40A0319F50A0319F60A0319F70A72
:100A3200FA01FA0AF31F1E2D1F2D2A2DF009F109C2
:100A4200F209F309F00A0319F10A0319F20A031968
:100A5200F30A73087204710470040319312D322DE4
:100A6200752DF901F90A422D0130F8000310F00D3D
:100A7200F10DF20DF30DF80B372D0130F800780867
:100A8200F907F31F452D462D352D73087702031DF7
:100A9200542D72087602031D542D71087502031D30
:100AA200542D70087402031C572D582D662D7008A2
:100AB200F4027108031C710FF5027208031C720F15
:100AC200F6027308031C730FF70201300310F30CD4
:100AD200F20CF10CF00CFF3E031D672D0130F90200
:100AE200031D742D752D462D7A080319792D7A2D43
:100AF200852DF409F509F609F709F40A0319F50A2F
:100B02000319F60A0319F70A7708F3007608F200C8
:100B12007508F1007408F00008006430F00000303D
:100B2200F100831203132108F3002008F2000A12D5
:100B32008A11FA230A128A11700883120313A2007F
:100B42002208A6000A30F8000030F9000A30F0004E
:100B52000030F1002108F3002008F2000A128A1185
:100B6200FA230A128A117108FB007008FA000A12AD
:100B72008A11C0230A128A11780883120313A20071
:100B82002208A7000A30F8000030F9002108FB0013
:100B92002008FA000A128A11C0230A128A11780860
:100BA20083120313A2002208A80026080A128A113F
:100BB20013260A128A1183120313A200A301A401AD
:100BC200A5012508BF002408BE002308BD00220895
:100BD200BC0027080A128A1113260A128A118312EC
:100BE2000313A200A301A401A5012508BB00240848
:100BF200BA002308B9002208B80028080A128A118C
:100C020013260A128A1183120313A200A301A4015C
:100C1200A5012508B7002408B6002308B50022085C
:100C2200B4000800F2006F2E0030F6000030F5002C
:100C32009230F4004930F300972E0030F600003075
:100C4200F5000030F4004830F300972E0030F60033
:100C52000F30F5006D30F4004330F300972E003072
:100C6200F6000F30F5004630F4009730F300972E6F
:100C72000030F6001030F500C930F4004E30F300B9
:100C8200972E0030F6001030F500CD30F4002D30F4
:100C9200F300972E0030F6001030F500F430F40027
:100CA2003D30F300972E0030F6000030F5000030A2
:100CB200F4004930F300972E0030F6001030F500B2
:100CC200F430F4004730F300972E0030F600103075
:100CD200F500C930F4004F30F300972E7208F0008F
:100CE200F1017108003A0319772E972E7008003A25
:100CF2000319152E013A03191E2E033A0319272E42
:100D0200013A0319302E073A0319392E013A031911
:100D1200422E033A03194B2E013A0319542E0F3A6D
:100D220003195D2E013A0319662E972E73080800E7
:100D320083120313A101F31F9F2EA02EAD2EF009E3
:100D4200F109F209F309F00A0319F10A0319F20A87
:100D52000319F30AA101A10AF71FB02EB12EC02E6A
:100D6200F409F509F609F709F40A0319F50A031952
:100D7200F60A0319F70A0130F8007808A1060030D4
:100D8200A5000030A4000030A3000030A2007308C8
:100D92007204710470040319CF2ED02E1D2FA001EE
:100DA200A00AE02E0130F8000310F00DF10DF20D53
:100DB200F30DF80BD52E0130F8007808A007F31FC9
:100DC200E32EE42ED32E0130F8000310A20DA30D62
:100DD200A40DA50DF80BE62E73087702031DFB2E5A
:100DE20072087602031DFB2E71087502031DFB2E8D
:100DF20070087402031CFE2EFF2E0E2F7008F402E0
:100E02007108031C710FF5027208031C720FF602BF
:100E12007308031C730FF702221401300310F30C42
:100E2200F20CF10CF00CFF3E031D0F2F0130A0025B
:100E3200031D1C2F1D2FE42E21080319212F222F01
:100E42002D2FA209A309A409A509A20A0319A30A1D
:100E52000319A40A0319A50A2508F3002408F200BD
:100E62002308F1002208F000080000308312031367
:100E7200AA000030A9009230A8004930A7006F2FC5
:100E82003F08AA003E08A9003D08A8003C08A700A8
:100E92008615061186100130C0000030C1007F2F78
:100EA2003B08AA003A08A9003908A8003808A70098
:100EB2008611061586100230C0000030C1007F2F57
:100EC2003708AA003608A9003508A8003408A70088
:100ED200861106118614C001C1017F2F4108003A14
:100EE2000319742F7F2F4008003A0319412F013A4A
:100EF2000319512F033A0319612F7F2F2A08AE00DD
:100F02002908AD002808AC002708AB000830FB0018
:100F12007B08AF000030F3000030F2000030F10037
:100F22000A30F0002E08F7002D08F6002C08F50014
:100F32002B08F4000A128A1109250A128A11700874
:100F4200FB007B0883120313A6000030F30000307D
:100F5200F2000030F1000A30F0002E08F7002D08F0
:100F6200F6002C08F5002B08F4000A128A119926C3
:100F72000A128A11730883120313AE007208AD00BD
:100F82007108AC007008AB000A30F0000030F100CC
:100F92002608FB00FC017B08F2007C08F3000A1221
:100FA2008A113E240A128A117008FD00FD0CFD0C04
:100FB2008312031306087D067F397D068600061715
:100FC20006130130AF022F08031DE82FE92F8B2FE4
:100FD20086168612080083134030FD000330FE009F
:100FE200A130FF00343084000A128A11B1230A12A0
:0E0FF2008A11C001C10183010A128A11972CD5
:04400E00D4ECFFFFF0
:00000001FF
