:060000000A128A11EC2F28
:10079C00BC348A34A9340034BC348A34A9340034CF
:1007AC00BC348A34A93400347E088A007F08820065
:1007BC000A128A11DA230A128A118000840A0408A8
:1007CC007D0603190034FF0A0319FE0ADE2B83127F
:1007DC000313A101FC1FF32BF42BFB2BFB09FC09CE
:1007EC00FB0A0319FC0AA101A10AFA1FFE2BFF2B1D
:0407FC00042CF909C7
:10080000FA09F90A0319FA0A79087A040319092C72
:100810000A2C392CA001A00A182C01300310F90D64
:10082000FA0DFF3E031D0E2C0130FD007D08A007D0
:10083000FA1F1B2C1C2C0D2C7A087C02031D222C69
:1008400079087B02031C252C262C2C2C7908FB0212
:100850007A08031CFC03FC0201300310FA0CF90CAB
:10086000FF3E031D2D2C0130A002031D382C392C16
:100870001C2C210803193D2C3E2C432CFB09FC09A0
:10088000FB0A0319FC0A7C08FA007B08F90008003F
:10089000F601F11F4C2C4D2C542CF009F109F00AF3
:1008A0000319F10AF601F60AF31F572C582C612C94
:1008B000F209F309F20A0319F30A0130F40074088B
:1008C000F606F701F801700871040319682C692C09
:1008D000A02CF501F50A772C01300310F00DF10D75
:1008E000FF3E031D6D2C0130F4007408F507F11F65
:1008F0007A2C7B2C6C2C01300310F70DF80DFF3E89
:10090000031D7C2C71087302031D882C7008720271
:10091000031C8B2C8C2C932C7008F2027108031C86
:10092000F303F302771401300310F10CF00CFF3ED7
:10093000031D942C0130F502031D9F2CA02C7B2C51
:1009400076080319A42CA52CAA2CF709F809F70A94
:100950000319F80A7808F1007708F00008008312FC
:100960000313B101B201AF01B001033083160313C9
:100970008500860103308700023081000B1DC12CE9
:10098000C22CCD2C831203130108833E81000B116E
:100990000A128A11B3260A128A1183120313071C42
:1009A000D22CD32CFB2C2F083004031DD82CD92C8F
:1009B000FB2C0130AF000030B000E73031060330CF
:1009C000031932060319E52CE62CEF2C3108013E01
:1009D000B10032080318013E003EB200F12CB10113
:1009E000B2013208A3003108A2000A128A1123259D
:1009F0000A128A11BE2C871CFE2CFF2C1D2D2F08DD
:100A00003004031D042D052D1D2D0130AF000030D5
:100A1000B0003108320403190E2D0F2D182D3108A6
:100A2000FF3EB10032080318013EFF3EB200F12C38
:100A3000E730B1000330B200F12CAF01B001BE2CA1
:100A40000A128A1100286430F0000030F10083128D
:100A500003132308F3002208F2000A128A11482423
:100A60000A128A11710883120313A5007008A400EA
:100A70000A30F9000030FA000A30F0000030F100CE
:100A80002308F3002208F2000A128A1148240A12ED
:100A90008A117108FC007008FB000A128A11ED230C
:100AA0000A128A117A0883120313A7007908A60094
:100AB0000A30F9000030FA002308FC002208FB008D
:100AC0000A128A11ED230A128A117A08831203137B
:100AD000A9007908A8002508F1002408F0000A12EE
:100AE0008A112A260A128A11730883120313BE0080
:100AF0007208BD007108BC007008BB002708F10037
:100B00002608F0000A128A112A260A128A1173088E
:100B100083120313BA007208B9007108B800700894
:100B2000B7002908F1002808F0000A128A112A26C5
:100B30000A128A11730883120313B6007208B500F3
:100B40007108B4007008B3000800FA01F71FA92D5E
:100B5000AA2DB72DF409F509F609F709F40A0319C6
:100B6000F50A0319F60A0319F70AFA01FA0AF31F3C
:100B7000BA2DBB2DC62DF009F109F209F309F00ACF
:100B80000319F10A0319F20A0319F30A730872042C
:100B9000710470040319CD2DCE2D112EF901F90A1F
:100BA000DE2D0130F8000310F00DF10DF20DF30D04
:100BB000F80BD32D0130F8007808F907F31FE12D69
:100BC000E22DD12D73087702031DF02D72087602F5
:100BD000031DF02D71087502031DF02D70087402BD
:100BE000031CF32DF42D022E7008F4027108031C6F
:100BF000710FF5027208031C720FF6027308031CD2
:100C0000730FF70201300310F30CF20CF10CF00C2F
:100C1000FF3E031D032E0130F902031D102E112E7D
:100C2000E22D7A080319152E162E212EF409F50946
:100C3000F609F709F40A0319F50A0319F60A031964
:100C4000F70A7708F3007608F2007508F1007408D7
:100C5000F0000800852E0030F700A930F6008A3039
:100C6000F500BC30F400AA2E0030F7000030F6008A
:100C70000230F5004030F400AA2E0030F7009A3020
:100C8000F6004430F5009E30F400AA2E0030F70044
:100C90009830F600C130F500E630F400AA2E00309E
:100CA000F700A730F600DD30F5000C30F400AA2E76
:100CB0000030F700A830F6000330F500C230F40031
:100CC000AA2E0030F700A930F6008A30F500623015
:100CD000F400AA2E0030F7000030F6000230F500D4
:100CE0004830F400AA2E0030F700A930F6008A3010
:100CF000F500C630F400AA2E0030F700A730F60049
:100D0000DD30F5001630F400AA2E7108003A031900
:100D10008A2EAA2E7008003A03192B2E013A0319C5
:100D2000342E033A03193D2E013A0319462E073A91
:100D300003194F2E013A0319582E033A0319612E55
:100D4000013A03196A2E0F3A0319732E013A031957
:100D50007C2EAA2E7708F3007608F2007508F100C1
:100D60007408F0000800003083120313A900A930B2
:100D7000A8008A30A700BC30A600EC2E3E08A900CF
:100D80003D08A8003C08A7003B08A60086150611F0
:100D900086100130BF000030C000FC2E3A08A900C8
:100DA0003908A8003808A7003708A60086110615DC
:100DB00086100230BF000030C000FC2E3608A900AB
:100DC0003508A8003408A7003308A60086110611CC
:100DD0008614BF01C001FC2E4008003A0319F12E11
:100DE000FC2E3F08003A0319BE2E013A0319CE2EFD
:100DF000033A0319DE2EFC2E2908AD002808AC00AA
:100E00002708AB002608AA000830FB007B08AE00CC
:100E10000030F3000030F2000030F1000A30F00042
:100E20002D08F7002C08F6002B08F5002A08F4001E
:100E30000A128A11A5250A128A11700C8312031353
:100E4000031C8613031886170030F3000030F200ED
:100E50000030F1000A30F0002D08F7002C08F600F1
:100E60002B08F5002A08F4000A128A114F270A12EB
:100E70008A11730883120313AD007208AC00710865
:100E8000AB007008AA00061706130130AE022E0848
:100E9000031D4B2F4C2F082F861686120800831235
:100EA0000313A101F31F552F562F632FF009F109EA
:100EB000F209F309F00A0319F10A0319F20A0319F6
:100EC000F30AA101A10AF71F662F672F762FF409F5
:100ED000F509F609F709F40A0319F50A0319F60AE0
:100EE0000319F70A0130F8007808A1060030A500C0
:100EF0000030A4000030A3000030A2007308720488
:100F0000710470040319852F862FD32FA001A00A26
:100F1000962F0130F8000310F00DF10DF20DF30DD6
:100F2000F80B8B2F0130F8007808A007F31F992FDA
:100F30009A2F892F0130F8000310A20DA30DA40DE4
:100F4000A50DF80B9C2F73087702031DB12F7208B3
:100F50007602031DB12F71087502031DB12F7008B1
:100F60007402031CB42FB52FC42F7008F40271084B
:100F7000031C710FF5027208031C720FF60273084E
:100F8000031C730FF702221401300310F30CF20C50
:100F9000F10CF00CFF3E031DC52F0130A002031D14
:100FA000D22FD32F9A2F21080319D72FD82FE32F11
:100FB000A209A309A409A509A20A0319A30A0319EE
:100FC000A40A0319A50A2508F3002408F20023083F
:100FD000F1002208F000080083133F30FD000330C9
:100FE000FE00CE30FF00333084000A128A11DE2367
:100FF0000A128A11BF01C00183010A128A11AF2CA3
:04400E00D4ECFFFFF0
:00000001FF
