:060000000A128A11EC2F28
:10078000BC348A34A9340034BC348A34A9340034EB
:10079000BC348A34A93400347E088A007F08820081
:1007A0000A128A11CC230A128A118000840A0408D2
:1007B0007D0603190034FF0A0319FE0AD02B8312A9
:1007C0000313A101FC1FE52BE62BED2BFB09FC0914
:1007D000FB0A0319FC0AA101A10AFA1FF02BF12B55
:1007E000F62BF909FA09F90A0319FA0A79087A04C1
:1007F0000319FB2BFC2B2B2CA001A00A0A2C013087
:100800000310F90DFA0DFF3E031D002C0130FD0011
:100810007D08A007FA1F0D2C0E2CFF2B7A087C02F6
:10082000031D142C79087B02031C172C182C1E2C7A
:100830007908FB027A08031CFC03FC020130031058
:10084000FA0CF90CFF3E031D1F2C0130A002031D02
:100850002A2C2B2C0E2C210803192F2C302C352C54
:10086000FB09FC09FB0A0319FC0A7C08FA007B0857
:10087000F9000800F601F11F3E2C3F2C462CF00930
:10088000F109F00A0319F10AF601F60AF31F492CDF
:100890004A2C532CF209F309F20A0319F30A013026
:1008A000F4007408F606F701F801700871040319E2
:1008B0005A2C5B2C922CF501F50A692C013003109F
:1008C000F00DF10DFF3E031D5F2C0130F4007408A4
:1008D000F507F11F6C2C6D2C5E2C01300310F70D09
:1008E000F80DFF3E031D6E2C71087302031D7A2C58
:1008F00070087202031C7D2C7E2C852C7008F2027D
:100900007108031CF303F302771401300310F10C98
:10091000F00CFF3E031D862C0130F502031D912CC7
:10092000922C6D2C76080319962C972C9C2CF70989
:10093000F809F70A0319F80A7808F1007708F000B7
:1009400008006430F0000030F10083120313230824
:10095000F3002208F2000A128A113A240A128A11BC
:10096000710883120313A5007008A4000A30F9006F
:100970000030FA000A30F0000030F1002308F300E4
:100980002208F2000A128A113A240A128A11710806
:10099000FC007008FB000A128A11DF230A128A1178
:1009A0007A0883120313A7007908A6000A30F90019
:1009B0000030FA002308FC002208FB000A128A110A
:1009C000DF230A128A117A0883120313A900790817
:1009D000A8002508F1002408F0000A128A112A262E
:1009E0000A128A11730883120313BE007208BD0035
:1009F0007108BC007008BB002708F1002608F00051
:100A00000A128A112A260A128A1173088312031302
:100A1000BA007208B9007108B8007008B700290858
:100A2000F1002808F0000A128A112A260A128A11F7
:100A3000730883120313B6007208B5007108B4007E
:100A40007008B300080083120313B101B201AF01B3
:100A5000B00103308316031385008601033087003D
:100A600083160317880102308316031381000B1DC0
:100A70003A2D3B2D462D831203130108833E81003E
:100A80000B110A128A11B3260A128A118312031358
:100A9000071C4B2D4C2D742D2F083004031D512D98
:100AA000522D742D0130AF000030B000E730310618
:100AB00003300319320603195E2D5F2D682D3108AE
:100AC000013EB10032080318013E003EB2006A2D1B
:100AD000B101B2013208A3003108A2000A128A1142
:100AE000A1240A128A11372D871C772D782D962D77
:100AF0002F083004031D7D2D7E2D962D0130AF0073
:100B00000030B000310832040319872D882D912D53
:100B10003108FF3EB10032080318013EFF3EB2002B
:100B20006A2DE730B1000330B2006A2D0718992D05
:100B30009A2DA12D87189D2D9E2DA12DAF01B001BD
:100B4000372D372D0A128A110028FA01F71FA92D17
:100B5000AA2DB72DF409F509F609F709F40A0319C6
:100B6000F50A0319F60A0319F70AFA01FA0AF31F3C
:100B7000BA2DBB2DC62DF009F109F209F309F00ACF
:100B80000319F10A0319F20A0319F30A730872042C
:100B9000710470040319CD2DCE2D112EF901F90A1F
:100BA000DE2D0130F8000310F00DF10DF20DF30D04
:100BB000F80BD32D0130F8007808F907F31FE12D69
:100BC000E22DD12D73087702031DF02D72087602F5
:100BD000031DF02D71087502031DF02D70087402BD
:100BE000031CF32DF42D022E7008F4027108031C6F
:100BF000710FF5027208031C720FF6027308031CD2
:100C0000730FF70201300310F30CF20CF10CF00C2F
:100C1000FF3E031D032E0130F902031D102E112E7D
:100C2000E22D7A080319152E162E212EF409F50946
:100C3000F609F709F40A0319F50A0319F60A031964
:100C4000F70A7708F3007608F2007508F1007408D7
:100C5000F0000800852E0030F700A930F6008A3039
:100C6000F500BC30F400AA2E0030F7000430F60086
:100C70008030F5000030F400AA2E0030F700A830D4
:100C8000F6000330F500C230F400AA2E0030F70061
:100C9000A930F6008630F5007A30F400AA2E003034
:100CA000F7000430F6008030F5004830F400AA2E3A
:100CB0000030F7009A30F6004430F5009E30F40022
:100CC000AA2E0030F7009A30F6004830F500863042
:100CD000F400AA2E0030F700A930F6005F30F500CE
:100CE0006030F400AA2E0030F700A930F6008A30F8
:100CF000F500C630F400AA2E0030F700A930F60047
:100D00008630F500DE30F400AA2E7108003A03198F
:100D10008A2EAA2E7008003A03192B2E013A0319C5
:100D2000342E033A03193D2E013A0319462E073A91
:100D300003194F2E013A0319582E033A0319612E55
:100D4000013A03196A2E0F3A0319732E013A031957
:100D50007C2EAA2E7708F3007608F2007508F100C1
:100D60007408F0000800003083120313A900A930B2
:100D7000A8008A30A700BC30A600EC2E3E08A900CF
:100D80003D08A8003C08A7003B08A60086150611F0
:100D900086100130BF000030C000FC2E3A08A900C8
:100DA0003908A8003808A7003708A60086110615DC
:100DB00086100230BF000030C000FC2E3608A900AB
:100DC0003508A8003408A7003308A60086110611CC
:100DD0008614BF01C001FC2E4008003A0319F12E11
:100DE000FC2E3F08003A0319BE2E013A0319CE2EFD
:100DF000033A0319DE2EFC2E2908AD002808AC00AA
:100E00002708AB002608AA000830FB007B08AE00CC
:100E10000030F3000030F2000030F1000A30F00042
:100E20002D08F7002C08F6002B08F5002A08F4001E
:100E30000A128A11A5250A128A11700C8312031353
:100E4000031C8613031886170030F3000030F200ED
:100E50000030F1000A30F0002D08F7002C08F600F1
:100E60002B08F5002A08F4000A128A114F270A12EB
:100E70008A11730883120313AD007208AC00710865
:100E8000AB007008AA00061706130130AE022E0848
:100E9000031D4B2F4C2F082F861686120800831235
:100EA0000313A101F31F552F562F632FF009F109EA
:100EB000F209F309F00A0319F10A0319F20A0319F6
:100EC000F30AA101A10AF71F662F672F762FF409F5
:100ED000F509F609F709F40A0319F50A0319F60AE0
:100EE0000319F70A0130F8007808A1060030A500C0
:100EF0000030A4000030A3000030A2007308720488
:100F0000710470040319852F862FD32FA001A00A26
:100F1000962F0130F8000310F00DF10DF20DF30DD6
:100F2000F80B8B2F0130F8007808A007F31F992FDA
:100F30009A2F892F0130F8000310A20DA30DA40DE4
:100F4000A50DF80B9C2F73087702031DB12F7208B3
:100F50007602031DB12F71087502031DB12F7008B1
:100F60007402031CB42FB52FC42F7008F40271084B
:100F7000031C710FF5027208031C720FF60273084E
:100F8000031C730FF702221401300310F30CF20C50
:100F9000F10CF00CFF3E031DC52F0130A002031D14
:100FA000D22FD32F9A2F21080319D72FD82FE32F11
:100FB000A209A309A409A509A20A0319A30A0319EE
:100FC000A40A0319A50A2508F3002408F20023083F
:100FD000F1002208F000080083133F30FD000330C9
:100FE000FE00C030FF00333084000A128A11D02383
:100FF0000A128A11BF01C00183010A128A11232D2E
:04400E00D4ECFFFFF0
:00000001FF
